{
  "contractName": "Exercice5",
  "abi": [
    {
      "inputs": [
        {
          "internalType": "uint256",
          "name": "nombre",
          "type": "uint256"
        }
      ],
      "name": "estPair",
      "outputs": [
        {
          "internalType": "bool",
          "name": "",
          "type": "bool"
        }
      ],
      "stateMutability": "pure",
      "type": "function",
      "constant": true
    }
  ],
  "bytecode": "0x608060405234801561001057600080fd5b5060d18061001f6000396000f3fe6080604052348015600f57600080fd5b506004361060285760003560e01c80631cee907f14602d575b600080fd5b603c60383660046062565b6050565b604051901515815260200160405180910390f35b6000605b600283607a565b1592915050565b600060208284031215607357600080fd5b5035919050565b600082609657634e487b7160e01b600052601260045260246000fd5b50069056fea2646970667358221220dbb277bbae2f0f66109067e12aac1b14d52f359b1b68e1f2e2591edb6a0ce60d64736f6c63430008130033",
  "immutableReferences": {},
  "source": "// contracts/Exercice5.sol\r\n// SPDX-License-Identifier: MIT\r\npragma solidity ^0.8.0;\r\n\r\ncontract Exercice5 {\r\n    function estPair(uint256 nombre) public pure returns (bool) {\r\n        return nombre % 2 == 0;\r\n    }\r\n}",
  "sourcePath": "C:\\Users\\Admin\\Desktop\\master GL 24.26\\blochchain\\dApp\\blockchain-tp3-dapp\\contracts\\Exercice5.sol",
  "compiler": {
    "name": "solc",
    "version": "0.8.19+commit.7dd6d404.Emscripten.clang"
  },
  "schemaVersion": "3.4.16",
  "updatedAt": "2025-07-29T23:14:50.262Z",
  "networkType": "ethereum",
  "devdoc": {
    "kind": "dev",
    "methods": {},
    "version": 1
  },
  "userdoc": {
    "kind": "user",
    "methods": {},
    "version": 1
  }
}