{
  "contractName": "Exercice2",
  "abi": [
    {
      "inputs": [
        {
          "internalType": "uint256",
          "name": "montantEther",
          "type": "uint256"
        }
      ],
      "name": "etherEnWei",
      "outputs": [
        {
          "internalType": "uint256",
          "name": "",
          "type": "uint256"
        }
      ],
      "stateMutability": "pure",
      "type": "function",
      "constant": true
    },
    {
      "inputs": [
        {
          "internalType": "uint256",
          "name": "montantWei",
          "type": "uint256"
        }
      ],
      "name": "weiEnEther",
      "outputs": [
        {
          "internalType": "uint256",
          "name": "",
          "type": "uint256"
        }
      ],
      "stateMutability": "pure",
      "type": "function",
      "constant": true
    }
  ],
  "bytecode": "0x608060405234801561001057600080fd5b50610124806100206000396000f3fe6080604052348015600f57600080fd5b506004361060325760003560e01c806318b5d6e5146037578063b5fcda34146058575b600080fd5b604660423660046091565b6067565b60405190815260200160405180910390f35b604660633660046091565b607f565b60006079670de0b6b3a76400008360a9565b92915050565b6000607982670de0b6b3a764000060ca565b60006020828403121560a257600080fd5b5035919050565b60008260c557634e487b7160e01b600052601260045260246000fd5b500490565b8082028115828204841417607957634e487b7160e01b600052601160045260246000fdfea264697066735822122007d7aecd8fcadb17bafe8b3acf39b248cddc52c3f7bbe1e207ec4a9a9597514764736f6c63430008130033",
  "immutableReferences": {},
  "source": "// contracts/Exercice2.sol\r\n// SPDX-License-Identifier: MIT\r\npragma solidity ^0.8.0;\r\n\r\ncontract Exercice2 {\r\n    function etherEnWei(uint256 montantEther) public pure returns (uint256) {\r\n        return montantEther * 1 ether;\r\n    }\r\n    \r\n    function weiEnEther(uint256 montantWei) public pure returns (uint256) {\r\n        return montantWei / 1 ether;\r\n    }\r\n}",
  "sourcePath": "C:\\Users\\Admin\\Desktop\\master GL 24.26\\blochchain\\dApp\\blockchain-tp3-dapp\\contracts\\Exercice2.sol",
  "compiler": {
    "name": "solc",
    "version": "0.8.19+commit.7dd6d404.Emscripten.clang"
  },
  "schemaVersion": "3.4.16",
  "updatedAt": "2025-07-29T23:14:50.241Z",
  "networkType": "ethereum",
  "devdoc": {
    "kind": "dev",
    "methods": {},
    "version": 1
  },
  "userdoc": {
    "kind": "user",
    "methods": {},
    "version": 1
  }
}