{
  "contractName": "GestionChaines",
  "abi": [
    {
      "inputs": [],
      "name": "message",
      "outputs": [
        {
          "internalType": "string",
          "name": "",
          "type": "string"
        }
      ],
      "stateMutability": "view",
      "type": "function",
      "constant": true
    },
    {
      "inputs": [
        {
          "internalType": "string",
          "name": "_message",
          "type": "string"
        }
      ],
      "name": "setMessage",
      "outputs": [],
      "stateMutability": "nonpayable",
      "type": "function"
    },
    {
      "inputs": [],
      "name": "getMessage",
      "outputs": [
        {
          "internalType": "string",
          "name": "",
          "type": "string"
        }
      ],
      "stateMutability": "view",
      "type": "function",
      "constant": true
    },
    {
      "inputs": [
        {
          "internalType": "string",
          "name": "a",
          "type": "string"
        },
        {
          "internalType": "string",
          "name": "b",
          "type": "string"
        }
      ],
      "name": "concatener",
      "outputs": [
        {
          "internalType": "string",
          "name": "",
          "type": "string"
        }
      ],
      "stateMutability": "pure",
      "type": "function",
      "constant": true
    },
    {
      "inputs": [
        {
          "internalType": "string",
          "name": "autre",
          "type": "string"
        }
      ],
      "name": "concatenerAvec",
      "outputs": [
        {
          "internalType": "string",
          "name": "",
          "type": "string"
        }
      ],
      "stateMutability": "view",
      "type": "function",
      "constant": true
    },
    {
      "inputs": [
        {
          "internalType": "string",
          "name": "s",
          "type": "string"
        }
      ],
      "name": "longueur",
      "outputs": [
        {
          "internalType": "uint256",
          "name": "",
          "type": "uint256"
        }
      ],
      "stateMutability": "pure",
      "type": "function",
      "constant": true
    },
    {
      "inputs": [
        {
          "internalType": "string",
          "name": "a",
          "type": "string"
        },
        {
          "internalType": "string",
          "name": "b",
          "type": "string"
        }
      ],
      "name": "comparer",
      "outputs": [
        {
          "internalType": "bool",
          "name": "",
          "type": "bool"
        }
      ],
      "stateMutability": "pure",
      "type": "function",
      "constant": true
    }
  ],
  "bytecode": "0x608060405234801561001057600080fd5b506106e6806100206000396000f3fe608060405234801561001057600080fd5b506004361061007d5760003560e01c80634f7596871161005b5780634f759687146100df5780639103ca33146100ff578063ce6d41de14610112578063e21f37ce1461011a57600080fd5b806317646f8914610082578063368b8772146100aa578063413d4384146100bf575b600080fd5b6100956100903660046103a6565b610122565b60405190151581526020015b60405180910390f35b6100bd6100b836600461040a565b61017b565b005b6100d26100cd36600461040a565b61018b565b6040516100a1919061046b565b6100f16100ed36600461040a565b5190565b6040519081526020016100a1565b6100d261010d3660046103a6565b6101b7565b6100d26101e3565b6100d2610275565b600081604051602001610135919061049e565b604051602081830303815290604052805190602001208360405160200161015c919061049e565b6040516020818303038152906040528051906020012014905092915050565b60006101878282610543565b5050565b60606000826040516020016101a1929190610603565b6040516020818303038152906040529050919050565b606082826040516020016101cc92919061068a565b604051602081830303815290604052905092915050565b6060600080546101f2906104ba565b80601f016020809104026020016040519081016040528092919081815260200182805461021e906104ba565b801561026b5780601f106102405761010080835404028352916020019161026b565b820191906000526020600020905b81548152906001019060200180831161024e57829003601f168201915b5050505050905090565b60008054610282906104ba565b80601f01602080910402602001604051908101604052809291908181526020018280546102ae906104ba565b80156102fb5780601f106102d0576101008083540402835291602001916102fb565b820191906000526020600020905b8154815290600101906020018083116102de57829003601f168201915b505050505081565b634e487b7160e01b600052604160045260246000fd5b600082601f83011261032a57600080fd5b813567ffffffffffffffff8082111561034557610345610303565b604051601f8301601f19908116603f0116810190828211818310171561036d5761036d610303565b8160405283815286602085880101111561038657600080fd5b836020870160208301376000602085830101528094505050505092915050565b600080604083850312156103b957600080fd5b823567ffffffffffffffff808211156103d157600080fd5b6103dd86838701610319565b935060208501359150808211156103f357600080fd5b5061040085828601610319565b9150509250929050565b60006020828403121561041c57600080fd5b813567ffffffffffffffff81111561043357600080fd5b61043f84828501610319565b949350505050565b60005b8381101561046257818101518382015260200161044a565b50506000910152565b602081526000825180602084015261048a816040850160208701610447565b601f01601f19169190910160400192915050565b600082516104b0818460208701610447565b9190910192915050565b600181811c908216806104ce57607f821691505b6020821081036104ee57634e487b7160e01b600052602260045260246000fd5b50919050565b601f82111561053e57600081815260208120601f850160051c8101602086101561051b5750805b601f850160051c820191505b8181101561053a57828155600101610527565b5050505b505050565b815167ffffffffffffffff81111561055d5761055d610303565b6105718161056b84546104ba565b846104f4565b602080601f8311600181146105a6576000841561058e5750858301515b600019600386901b1c1916600185901b17855561053a565b600085815260208120601f198616915b828110156105d5578886015182559484019460019091019084016105b6565b50858210156105f35787850151600019600388901b60f8161c191681555b5050505050600190811b01905550565b6000808454610611816104ba565b60018281168015610629576001811461063e5761066d565b60ff198416875282151583028701945061066d565b8860005260208060002060005b858110156106645781548a82015290840190820161064b565b50505082870194505b505050508351610681818360208801610447565b01949350505050565b6000835161069c818460208801610447565b83519083019061068181836020880161044756fea264697066735822122038d66c5aeafe382a1420a1f95e8d28a9e9eb8fd0d235bb5233e8c3f8e910ffc764736f6c63430008130033",
  "immutableReferences": {},
  "source": "// contracts/Exercice3.sol\r\n// SPDX-License-Identifier: MIT\r\npragma solidity ^0.8.0;\r\n\r\ncontract GestionChaines {\r\n    string public message;\r\n    \r\n    function setMessage(string memory _message) public {\r\n        message = _message;\r\n    }\r\n    \r\n    function getMessage() public view returns (string memory) {\r\n        return message;\r\n    }\r\n    \r\n    function concatener(string memory a, string memory b) public pure returns (string memory) {\r\n        return string.concat(a, b);\r\n    }\r\n    \r\n    function concatenerAvec(string memory autre) public view returns (string memory) {\r\n        return string.concat(message, autre);\r\n    }\r\n    \r\n    function longueur(string memory s) public pure returns (uint256) {\r\n        return bytes(s).length;\r\n    }\r\n    \r\n    function comparer(string memory a, string memory b) public pure returns (bool) {\r\n        return keccak256(abi.encodePacked(a)) == keccak256(abi.encodePacked(b));\r\n    }\r\n}",
  "sourcePath": "C:\\Users\\Admin\\Desktop\\master GL 24.26\\blochchain\\dApp\\blockchain-tp3-dapp\\contracts\\Exercice3.sol",
  "compiler": {
    "name": "solc",
    "version": "0.8.19+commit.7dd6d404.Emscripten.clang"
  },
  "schemaVersion": "3.4.16",
  "updatedAt": "2025-07-29T23:14:50.251Z",
  "networkType": "ethereum",
  "devdoc": {
    "kind": "dev",
    "methods": {},
    "version": 1
  },
  "userdoc": {
    "kind": "user",
    "methods": {},
    "version": 1
  }
}