{
  "contractName": "Exercice4",
  "abi": [
    {
      "inputs": [
        {
          "internalType": "int256",
          "name": "nombre",
          "type": "int256"
        }
      ],
      "name": "estPositif",
      "outputs": [
        {
          "internalType": "bool",
          "name": "",
          "type": "bool"
        }
      ],
      "stateMutability": "pure",
      "type": "function",
      "constant": true
    }
  ],
  "bytecode": "0x6080604052348015600f57600080fd5b5060a08061001e6000396000f3fe6080604052348015600f57600080fd5b506004361060285760003560e01c8063fa046abd14602d575b600080fd5b603e60383660046052565b60001290565b604051901515815260200160405180910390f35b600060208284031215606357600080fd5b503591905056fea2646970667358221220e8d4ff5555b3d486eba133c2a5bb4fb20b1f0072f464abba0feb823ac64e115164736f6c63430008130033",
  "immutableReferences": {},
  "source": "// contracts/Exercice4.sol\r\n// SPDX-License-Identifier: MIT\r\npragma solidity ^0.8.0;\r\n\r\ncontract Exercice4 {\r\n    function estPositif(int256 nombre) public pure returns (bool) {\r\n        return nombre > 0;\r\n    }\r\n}",
  "sourcePath": "C:\\Users\\Admin\\Desktop\\master GL 24.26\\blochchain\\dApp\\blockchain-tp3-dapp\\contracts\\Exercice4.sol",
  "compiler": {
    "name": "solc",
    "version": "0.8.19+commit.7dd6d404.Emscripten.clang"
  },
  "schemaVersion": "3.4.16",
  "updatedAt": "2025-07-29T23:14:50.258Z",
  "networkType": "ethereum",
  "devdoc": {
    "kind": "dev",
    "methods": {},
    "version": 1
  },
  "userdoc": {
    "kind": "user",
    "methods": {},
    "version": 1
  }
}