{
  "contractName": "Exercice6",
  "abi": [
    {
      "inputs": [
        {
          "internalType": "uint256[]",
          "name": "_nombres",
          "type": "uint256[]"
        }
      ],
      "stateMutability": "nonpayable",
      "type": "constructor"
    },
    {
      "inputs": [
        {
          "internalType": "uint256",
          "name": "",
          "type": "uint256"
        }
      ],
      "name": "nombres",
      "outputs": [
        {
          "internalType": "uint256",
          "name": "",
          "type": "uint256"
        }
      ],
      "stateMutability": "view",
      "type": "function",
      "constant": true
    },
    {
      "inputs": [
        {
          "internalType": "uint256",
          "name": "nombre",
          "type": "uint256"
        }
      ],
      "name": "ajouterNombre",
      "outputs": [],
      "stateMutability": "nonpayable",
      "type": "function"
    },
    {
      "inputs": [
        {
          "internalType": "uint256",
          "name": "index",
          "type": "uint256"
        }
      ],
      "name": "getElement",
      "outputs": [
        {
          "internalType": "uint256",
          "name": "",
          "type": "uint256"
        }
      ],
      "stateMutability": "view",
      "type": "function",
      "constant": true
    },
    {
      "inputs": [],
      "name": "afficheTableau",
      "outputs": [
        {
          "internalType": "uint256[]",
          "name": "",
          "type": "uint256[]"
        }
      ],
      "stateMutability": "view",
      "type": "function",
      "constant": true
    },
    {
      "inputs": [],
      "name": "calculerSomme",
      "outputs": [
        {
          "internalType": "uint256",
          "name": "",
          "type": "uint256"
        }
      ],
      "stateMutability": "view",
      "type": "function",
      "constant": true
    }
  ],
  "bytecode": "0x608060405234801561001057600080fd5b506040516104af3803806104af83398101604081905261002f916100bf565b8051610042906000906020840190610049565b505061017c565b828054828255906000526020600020908101928215610084579160200282015b82811115610084578251825591602001919060010190610069565b50610090929150610094565b5090565b5b808211156100905760008155600101610095565b634e487b7160e01b600052604160045260246000fd5b600060208083850312156100d257600080fd5b82516001600160401b03808211156100e957600080fd5b818501915085601f8301126100fd57600080fd5b81518181111561010f5761010f6100a9565b8060051b604051601f19603f83011681018181108582111715610134576101346100a9565b60405291825284820192508381018501918883111561015257600080fd5b938501935b8285101561017057845184529385019392850192610157565b98975050505050505050565b6103248061018b6000396000f3fe608060405234801561001057600080fd5b50600436106100575760003560e01c80631f4440b01461005c5780633a7d22bc1461007a5780637692fb5f1461009b578063bd92c667146100ae578063e66df334146100f0575b600080fd5b6100646100f8565b6040516100719190610233565b60405180910390f35b61008d610088366004610277565b610150565b604051908152602001610071565b61008d6100a9366004610277565b6101c0565b6100ee6100bc366004610277565b600080546001810182559080527f290decd9548b62a8d60345a988386fc84ba6bc95484008f6362f93160ef3e5630155565b005b61008d6101e1565b6060600080548060200260200160405190810160405280929190818152602001828054801561014657602002820191906000526020600020905b815481526020019060010190808311610132575b5050505050905090565b60008054821061019b5760405162461bcd60e51b8152602060048201526012602482015271496e646578206e276578697374652070617360701b604482015260640160405180910390fd5b600082815481106101ae576101ae610290565b90600052602060002001549050919050565b600081815481106101d057600080fd5b600091825260209091200154905081565b600080805b60005481101561022d576000818154811061020357610203610290565b90600052602060002001548261021991906102bc565b915080610225816102d5565b9150506101e6565b50919050565b6020808252825182820181905260009190848201906040850190845b8181101561026b5783518352928401929184019160010161024f565b50909695505050505050565b60006020828403121561028957600080fd5b5035919050565b634e487b7160e01b600052603260045260246000fd5b634e487b7160e01b600052601160045260246000fd5b808201808211156102cf576102cf6102a6565b92915050565b6000600182016102e7576102e76102a6565b506001019056fea2646970667358221220547e0395ee924660d07dbf1633b98445a1ec766ae184cd474dfb7a74f4c3012364736f6c63430008130033",
  "immutableReferences": {},
  "source": "// contracts/Exercice6.sol\r\n// SPDX-License-Identifier: MIT\r\npragma solidity ^0.8.0;\r\n\r\ncontract Exercice6 {\r\n    uint[] public nombres;\r\n    \r\n    constructor(uint[] memory _nombres) {\r\n        nombres = _nombres;\r\n    }\r\n    \r\n    function ajouterNombre(uint256 nombre) public {\r\n        nombres.push(nombre);\r\n    }\r\n    \r\n    function getElement(uint256 index) public view returns (uint256) {\r\n        require(index < nombres.length, \"Index n'existe pas\");\r\n        return nombres[index];\r\n    }\r\n    \r\n    function afficheTableau() public view returns (uint[] memory) {\r\n        return nombres;\r\n    }\r\n    \r\n    function calculerSomme() public view returns (uint256) {\r\n        uint256 somme = 0;\r\n        for (uint256 i = 0; i < nombres.length; i++) {\r\n            somme += nombres[i];\r\n        }\r\n        return somme;\r\n    }\r\n}",
  "sourcePath": "C:\\Users\\Admin\\Desktop\\master GL 24.26\\blochchain\\dApp\\blockchain-tp3-dapp\\contracts\\Exercice6.sol",
  "compiler": {
    "name": "solc",
    "version": "0.8.19+commit.7dd6d404.Emscripten.clang"
  },
  "schemaVersion": "3.4.16",
  "updatedAt": "2025-07-29T23:14:50.268Z",
  "networkType": "ethereum",
  "devdoc": {
    "kind": "dev",
    "methods": {},
    "version": 1
  },
  "userdoc": {
    "kind": "user",
    "methods": {},
    "version": 1
  }
}