{
  "contractName": "Exercice1",
  "abi": [
    {
      "inputs": [
        {
          "internalType": "uint256",
          "name": "_nombre1",
          "type": "uint256"
        },
        {
          "internalType": "uint256",
          "name": "_nombre2",
          "type": "uint256"
        }
      ],
      "stateMutability": "nonpayable",
      "type": "constructor"
    },
    {
      "inputs": [],
      "name": "nombre1",
      "outputs": [
        {
          "internalType": "uint256",
          "name": "",
          "type": "uint256"
        }
      ],
      "stateMutability": "view",
      "type": "function",
      "constant": true
    },
    {
      "inputs": [],
      "name": "nombre2",
      "outputs": [
        {
          "internalType": "uint256",
          "name": "",
          "type": "uint256"
        }
      ],
      "stateMutability": "view",
      "type": "function",
      "constant": true
    },
    {
      "inputs": [],
      "name": "addition1",
      "outputs": [
        {
          "internalType": "uint256",
          "name": "",
          "type": "uint256"
        }
      ],
      "stateMutability": "view",
      "type": "function",
      "constant": true
    },
    {
      "inputs": [
        {
          "internalType": "uint256",
          "name": "a",
          "type": "uint256"
        },
        {
          "internalType": "uint256",
          "name": "b",
          "type": "uint256"
        }
      ],
      "name": "addition2",
      "outputs": [
        {
          "internalType": "uint256",
          "name": "",
          "type": "uint256"
        }
      ],
      "stateMutability": "pure",
      "type": "function",
      "constant": true
    },
    {
      "inputs": [
        {
          "internalType": "uint256",
          "name": "_nombre1",
          "type": "uint256"
        }
      ],
      "name": "setNombre1",
      "outputs": [],
      "stateMutability": "nonpayable",
      "type": "function"
    },
    {
      "inputs": [
        {
          "internalType": "uint256",
          "name": "_nombre2",
          "type": "uint256"
        }
      ],
      "name": "setNombre2",
      "outputs": [],
      "stateMutability": "nonpayable",
      "type": "function"
    }
  ],
  "bytecode": "0x608060405234801561001057600080fd5b506040516101fc3803806101fc83398101604081905261002f9161003d565b600091909155600155610061565b6000806040838503121561005057600080fd5b505080516020909101519092909150565b61018c806100706000396000f3fe608060405234801561001057600080fd5b50600436106100625760003560e01c80634d3e46e41461006757806356620c8a146100815780637a5ba4041461008a578063e3ecf25814610093578063ec0cf20b146100a8578063f1d16438146100bb575b600080fd5b61006f6100ce565b60405190815260200160405180910390f35b61006f60015481565b61006f60005481565b6100a66100a13660046100fa565b600155565b005b6100a66100b63660046100fa565b600055565b61006f6100c9366004610113565b6100e5565b60006001546000546100e09190610135565b905090565b60006100f18284610135565b90505b92915050565b60006020828403121561010c57600080fd5b5035919050565b6000806040838503121561012657600080fd5b50508035926020909101359150565b808201808211156100f457634e487b7160e01b600052601160045260246000fdfea2646970667358221220e896633645a9795abad176dddc0bafa706b8c2f9496ee58aef2891cff39200b764736f6c63430008130033",
  "immutableReferences": {},
  "source": "// contracts/Exercice1.sol\r\n// SPDX-License-Identifier: MIT\r\npragma solidity ^0.8.0;\r\n\r\ncontract Exercice1 {\r\n    uint256 public nombre1;\r\n    uint256 public nombre2;\r\n    \r\n    constructor(uint256 _nombre1, uint256 _nombre2) {\r\n        nombre1 = _nombre1;\r\n        nombre2 = _nombre2;\r\n    }\r\n    \r\n    // Fonction view qui utilise les variables d'état\r\n    function addition1() public view returns (uint256) {\r\n        return nombre1 + nombre2;\r\n    }\r\n    \r\n    // Fonction pure qui prend des paramètres\r\n    function addition2(uint256 a, uint256 b) public pure returns (uint256) {\r\n        return a + b;\r\n    }\r\n    \r\n    // Fonctions pour modifier les variables d'état\r\n    function setNombre1(uint256 _nombre1) public {\r\n        nombre1 = _nombre1;\r\n    }\r\n    \r\n    function setNombre2(uint256 _nombre2) public {\r\n        nombre2 = _nombre2;\r\n    }\r\n}",
  "sourcePath": "C:\\Users\\Admin\\Desktop\\master GL 24.26\\blochchain\\dApp\\blockchain-tp3-dapp\\contracts\\Exercice1.sol",
  "compiler": {
    "name": "solc",
    "version": "0.8.19+commit.7dd6d404.Emscripten.clang"
  },
  "schemaVersion": "3.4.16",
  "updatedAt": "2025-07-29T23:14:50.236Z",
  "networkType": "ethereum",
  "devdoc": {
    "kind": "dev",
    "methods": {},
    "version": 1
  },
  "userdoc": {
    "kind": "user",
    "methods": {},
    "version": 1
  }
}