{
  "contractName": "Payment",
  "abi": [
    {
      "inputs": [
        {
          "internalType": "address",
          "name": "_recipient",
          "type": "address"
        }
      ],
      "stateMutability": "nonpayable",
      "type": "constructor"
    },
    {
      "inputs": [],
      "name": "recipient",
      "outputs": [
        {
          "internalType": "address",
          "name": "",
          "type": "address"
        }
      ],
      "stateMutability": "view",
      "type": "function",
      "constant": true
    },
    {
      "inputs": [],
      "name": "receivePayment",
      "outputs": [],
      "stateMutability": "payable",
      "type": "function",
      "payable": true
    },
    {
      "inputs": [],
      "name": "withdraw",
      "outputs": [],
      "stateMutability": "nonpayable",
      "type": "function"
    },
    {
      "inputs": [],
      "name": "getBalance",
      "outputs": [
        {
          "internalType": "uint256",
          "name": "",
          "type": "uint256"
        }
      ],
      "stateMutability": "view",
      "type": "function",
      "constant": true
    }
  ],
  "bytecode": "0x608060405234801561001057600080fd5b5060405161028738038061028783398101604081905261002f91610054565b600080546001600160a01b0319166001600160a01b0392909216919091179055610084565b60006020828403121561006657600080fd5b81516001600160a01b038116811461007d57600080fd5b9392505050565b6101f4806100936000396000f3fe60806040526004361061003f5760003560e01c806312065fe0146100445780633ccfd60b1461006457806366d003ac1461007b578063835c19f3146100b3575b600080fd5b34801561005057600080fd5b506040514781526020015b60405180910390f35b34801561007057600080fd5b506100796100bb565b005b34801561008757600080fd5b5060005461009b906001600160a01b031681565b6040516001600160a01b03909116815260200161005b565b610079610161565b6000546001600160a01b031633146101245760405162461bcd60e51b815260206004820152602160248201527f5365756c206c652064657374696e6174616972652070657574207265746972656044820152603960f91b60648201526084015b60405180910390fd5b600080546040516001600160a01b03909116914780156108fc02929091818181858888f1935050505015801561015e573d6000803e3d6000fd5b50565b600034116101bc5760405162461bcd60e51b815260206004820152602260248201527f4c65206d6f6e74616e7420646f69742065747265207375706572696575722061604482015261020360f41b606482015260840161011b565b56fea264697066735822122084b1b81e09e7fdff58aa65fde109fd416f0ef774398daa6b82be33dd1a922b6064736f6c63430008130033",
  "immutableReferences": {},
  "source": "// contracts/Exercice8.sol\r\n// SPDX-License-Identifier: MIT\r\npragma solidity ^0.8.0;\r\n\r\ncontract Payment {\r\n    address public recipient;\r\n    \r\n    constructor(address _recipient) {\r\n        recipient = _recipient;\r\n    }\r\n    \r\n    function receivePayment() public payable {\r\n        require(msg.value > 0, \"Le montant doit etre superieur a 0\");\r\n    }\r\n    \r\n    function withdraw() public {\r\n        require(msg.sender == recipient, \"Seul le destinataire peut retirer\");\r\n        payable(recipient).transfer(address(this).balance);\r\n    }\r\n    \r\n    function getBalance() public view returns (uint256) {\r\n        return address(this).balance;\r\n    }\r\n}",
  "sourcePath": "C:\\Users\\Admin\\Desktop\\master GL 24.26\\blochchain\\dApp\\blockchain-tp3-dapp\\contracts\\Exercice8.sol",
  "compiler": {
    "name": "solc",
    "version": "0.8.19+commit.7dd6d404.Emscripten.clang"
  },
  "schemaVersion": "3.4.16",
  "updatedAt": "2025-07-29T23:14:50.302Z",
  "networkType": "ethereum",
  "devdoc": {
    "kind": "dev",
    "methods": {},
    "version": 1
  },
  "userdoc": {
    "kind": "user",
    "methods": {},
    "version": 1
  }
}