{
  "contractName": "Rectangle",
  "abi": [
    {
      "inputs": [
        {
          "internalType": "uint256",
          "name": "_x",
          "type": "uint256"
        },
        {
          "internalType": "uint256",
          "name": "_y",
          "type": "uint256"
        },
        {
          "internalType": "uint256",
          "name": "_longueur",
          "type": "uint256"
        },
        {
          "internalType": "uint256",
          "name": "_largeur",
          "type": "uint256"
        }
      ],
      "stateMutability": "nonpayable",
      "type": "constructor"
    },
    {
      "inputs": [],
      "name": "afficheXY",
      "outputs": [
        {
          "internalType": "uint256",
          "name": "",
          "type": "uint256"
        },
        {
          "internalType": "uint256",
          "name": "",
          "type": "uint256"
        }
      ],
      "stateMutability": "view",
      "type": "function",
      "constant": true
    },
    {
      "inputs": [
        {
          "internalType": "uint256",
          "name": "dx",
          "type": "uint256"
        },
        {
          "internalType": "uint256",
          "name": "dy",
          "type": "uint256"
        }
      ],
      "name": "deplacerForme",
      "outputs": [],
      "stateMutability": "nonpayable",
      "type": "function"
    },
    {
      "inputs": [],
      "name": "la",
      "outputs": [
        {
          "internalType": "uint256",
          "name": "",
          "type": "uint256"
        }
      ],
      "stateMutability": "view",
      "type": "function",
      "constant": true
    },
    {
      "inputs": [],
      "name": "lo",
      "outputs": [
        {
          "internalType": "uint256",
          "name": "",
          "type": "uint256"
        }
      ],
      "stateMutability": "view",
      "type": "function",
      "constant": true
    },
    {
      "inputs": [],
      "name": "x",
      "outputs": [
        {
          "internalType": "uint256",
          "name": "",
          "type": "uint256"
        }
      ],
      "stateMutability": "view",
      "type": "function",
      "constant": true
    },
    {
      "inputs": [],
      "name": "y",
      "outputs": [
        {
          "internalType": "uint256",
          "name": "",
          "type": "uint256"
        }
      ],
      "stateMutability": "view",
      "type": "function",
      "constant": true
    },
    {
      "inputs": [],
      "name": "surface",
      "outputs": [
        {
          "internalType": "uint256",
          "name": "",
          "type": "uint256"
        }
      ],
      "stateMutability": "view",
      "type": "function",
      "constant": true
    },
    {
      "inputs": [],
      "name": "afficheInfos",
      "outputs": [
        {
          "internalType": "string",
          "name": "",
          "type": "string"
        }
      ],
      "stateMutability": "pure",
      "type": "function",
      "constant": true
    },
    {
      "inputs": [],
      "name": "afficheLoLa",
      "outputs": [
        {
          "internalType": "uint256",
          "name": "",
          "type": "uint256"
        },
        {
          "internalType": "uint256",
          "name": "",
          "type": "uint256"
        }
      ],
      "stateMutability": "view",
      "type": "function",
      "constant": true
    }
  ],
  "bytecode": "0x608060405234801561001057600080fd5b506040516102bf3803806102bf83398101604081905261002f91610046565b60009390935560019190915560025560035561007c565b6000806000806080858703121561005c57600080fd5b505082516020840151604085015160609095015191969095509092509050565b6102348061008b6000396000f3fe608060405234801561001057600080fd5b50600436106100935760003560e01c806390c33c3f1161006657806390c33c3f146100e15780639361c232146100ea578063a56dfe4a14610105578063cd514e401461010e578063cfa8d7a41461011957600080fd5b80630c55699c146100985780630e94ba83146100b45780637780c14f146100bc57806383a443a6146100c5575b600080fd5b6100a160005481565b6040519081526020015b60405180910390f35b6100a161014c565b6100a160025481565b6002546003545b604080519283526020830191909152016100ab565b6100a160035481565b6101036100f8366004610163565b600091909155600155565b005b6100a160015481565b6000546001546100cc565b60408051808201825260118152704a6520737569732052656374616e676c6560781b602082015290516100ab9190610185565b600060035460025461015e91906101d3565b905090565b6000806040838503121561017657600080fd5b50508035926020909101359150565b600060208083528351808285015260005b818110156101b257858101830151858201604001528201610196565b506000604082860101526040601f19601f8301168501019250505092915050565b80820281158282048414176101f857634e487b7160e01b600052601160045260246000fd5b9291505056fea264697066735822122040fdc849fc31e69a1deb4522f9d86e1e9cb74ab51c63b0a28f752d1faf837eab64736f6c63430008130033",
  "immutableReferences": {},
  "source": "// contracts/Exercice7.sol\r\n// SPDX-License-Identifier: MIT\r\npragma solidity ^0.8.0;\r\n\r\nabstract contract Forme {\r\n    uint public x;\r\n    uint public y;\r\n    \r\n    constructor(uint _x, uint _y) {\r\n        x = _x;\r\n        y = _y;\r\n    }\r\n    \r\n    function deplacerForme(uint dx, uint dy) public {\r\n        x = dx;\r\n        y = dy;\r\n    }\r\n    \r\n    function afficheXY() public view returns (uint, uint) {\r\n        return (x, y);\r\n    }\r\n    \r\n    function afficheInfos() public pure virtual returns (string memory) {\r\n        return \"Je suis une forme\";\r\n    }\r\n    \r\n    function surface() public view virtual returns (uint);\r\n}\r\n\r\ncontract Rectangle is Forme {\r\n    uint public lo; // longueur\r\n    uint public la; // largeur\r\n    \r\n    constructor(uint _x, uint _y, uint _longueur, uint _largeur) \r\n        Forme(_x, _y) {\r\n        lo = _longueur;\r\n        la = _largeur;\r\n    }\r\n    \r\n    function surface() public view override returns (uint) {\r\n        return lo * la;\r\n    }\r\n    \r\n    function afficheInfos() public pure override returns (string memory) {\r\n        return \"Je suis Rectangle\";\r\n    }\r\n    \r\n    function afficheLoLa() public view returns (uint, uint) {\r\n        return (lo, la);\r\n    }\r\n}",
  "sourcePath": "C:\\Users\\Admin\\Desktop\\master GL 24.26\\blochchain\\dApp\\blockchain-tp3-dapp\\contracts\\Exercice7.sol",
  "compiler": {
    "name": "solc",
    "version": "0.8.19+commit.7dd6d404.Emscripten.clang"
  },
  "schemaVersion": "3.4.16",
  "updatedAt": "2025-07-29T23:14:50.275Z",
  "networkType": "ethereum",
  "devdoc": {
    "kind": "dev",
    "methods": {},
    "version": 1
  },
  "userdoc": {
    "kind": "user",
    "methods": {},
    "version": 1
  }
}